:0A000000FF280000000000000028A7
:04000A0000000800EA
:10000E000830FC002330FD00FD0B0B28FC0B0B28E9
:02001E000800D8
:0C0020001030FD00FD0B1228000008004D
:10002C0083120313AF1B1C2886111D2886152F1B4A
:10003C002128061122280615AF1A262886102728F3
:10004C0086142F1A2B2806102C2806142918302851
:10005C00061631280612861605208612AF19382886
:10006C008611392886152F193D2806113E280615AC
:10007C00AF1842288610432886142F1847280610DC
:10008C004828061429184C2806164D2806128616E0
:10009C0005208612291C54280720552810200800FA
:1000AC008312031329102E08AF0016202914080000
:0E00BC008312031328088A0027088200080018
:1000CA005E208A110A128000840AA70A0319A80A64
:0800DA00F003031D6528080076
:1000E2008328803083120313AA009628C030AA0006
:1000F20096289430AA009628D430AA0096288030F8
:10010200AA009628831203132A08013A03197228B7
:100112002A08023A031977282A08033A03197A2887
:100122002A08043A03197D2880282B03F0002A08A4
:10013200F0077008AA007008AF0016202910AD0160
:100142002D082C07840000080319AF282D082C075E
:1001520084000008AE005620AD0AA1282914080028
:1001620083160313861206120610861006118611D4
:1001720083128612061286110611861006100720B7
:1001820007200720861406148616052086120720EB
:10019200861605208612072086160520861207205D
:1001A200061086160520861207208616052086125E
:1001B20086108615861605208612072086110614DB
:1001C200861605208612061086160520861207203E
:1001D200861605208612061486160520861207202A
:1001E2000610861605208612861506158614061434
:0C01F2008616052086120720291408003C
:1001FE00483083120313A0006530A1006C30A200BA
:10020E006C30A3006F30A4002130A500A601FF3092
:10021E00831687008601B1200130AA000330AB009F
:08022E002030AC0071201A29F8
:02400E004A2F37
:00000001FF
