:02000000A52831
:0E0006008312031323088A00220882000800D8
:1000140083120313FB01FA01F9018030F800F10C9B
:10002400F00C031C1E287408F90775080318750FD3
:10003400FA070318FB0A0310F01F26287408FA07AE
:1000440075080318750FFB07FB0CFA0CF90CF80C78
:10005400031C11287B08F3007A08F2007908F100E8
:060064007808F00008001E
:0C006A008312031395011712971208006F
:1000760083160313981690308312980083168717F9
:10008600071383128C1E4A281A08F0004428080019
:10009600831603131208013EF000F1010318F10A5A
:1000A60083122408F400F5010A200630F2007008D5
:1000B600F4007108F500720803196628F50CF40CB3
:1000C600F513FF3E5F280430F1007408F000710854
:1000D60003197128F00D7010FF3E6B28831203136D
:1000E60030307005F3007408F0007508F100F10C6B
:1000F600F00CF113F10CF00CF113700895000F30B1
:08010600970573089704080037
:10010E008316031398188D2800008728831224085D
:04011E00990008003C
:1001220003208A110A128000840AA20A0319A30A70
:08013200F003031D91280800F1
:10013A00831603130711831212150C309704080053
:10014A008316031387018801FF3083128800673002
:10015A008316990018153B2012109210203083162E
:10016A00920035207F30A4004B201430A0000030CC
:10017A00A1009D202008A40087200630FB00133030
:10018A00FC00AD30FD00FD0BC828FC0BC828FB0B9A
:0A019A00C82800000000BF28D1288B
:02400E004A2F37
:00000001FF
